{
  "address": "0xa4541954A4058b5f1eDeba9cabF73Dbd53CbFC37",
  "abi": [
    {
      "inputs": [
        {
          "internalType": "address",
          "name": "initialOwner",
          "type": "address"
        },
        {
          "internalType": "address",
          "name": "trustedForwarder",
          "type": "address"
        },
        {
          "internalType": "address",
          "name": "collateral",
          "type": "address"
        },
        {
          "internalType": "address",
          "name": "token1155",
          "type": "address"
        },
        {
          "internalType": "address",
          "name": "managerAddress",
          "type": "address"
        }
      ],
      "stateMutability": "nonpayable",
      "type": "constructor"
    },
    {
      "inputs": [],
      "name": "Exchange__FillingPaused",
      "type": "error"
    },
    {
      "inputs": [],
      "name": "Exchange__InactiveOffer",
      "type": "error"
    },
    {
      "inputs": [],
      "name": "Exchange__InvalidAmount",
      "type": "error"
    },
    {
      "inputs": [],
      "name": "Exchange__InvalidOffer",
      "type": "error"
    },
    {
      "inputs": [],
      "name": "Exchange__InvalidPrice",
      "type": "error"
    },
    {
      "inputs": [],
      "name": "Exchange__MarketClosed",
      "type": "error"
    },
    {
      "inputs": [],
      "name": "Exchange__NotMaker",
      "type": "error"
    },
    {
      "inputs": [],
      "name": "Exchange__PostingPaused",
      "type": "error"
    },
    {
      "inputs": [],
      "name": "Exchange__QuoteTooSmall",
      "type": "error"
    },
    {
      "inputs": [],
      "name": "Exchange__SelfFillNotAllowed",
      "type": "error"
    },
    {
      "inputs": [],
      "name": "Exchange__TransferFailed",
      "type": "error"
    },
    {
      "inputs": [
        {
          "internalType": "address",
          "name": "owner",
          "type": "address"
        }
      ],
      "name": "OwnableInvalidOwner",
      "type": "error"
    },
    {
      "inputs": [
        {
          "internalType": "address",
          "name": "account",
          "type": "address"
        }
      ],
      "name": "OwnableUnauthorizedAccount",
      "type": "error"
    },
    {
      "inputs": [],
      "name": "ReentrancyGuardReentrantCall",
      "type": "error"
    },
    {
      "anonymous": false,
      "inputs": [
        {
          "indexed": false,
          "internalType": "bool",
          "name": "paused",
          "type": "bool"
        }
      ],
      "name": "FillingPausedSet",
      "type": "event"
    },
    {
      "anonymous": false,
      "inputs": [
        {
          "indexed": true,
          "internalType": "uint256",
          "name": "offerId",
          "type": "uint256"
        },
        {
          "indexed": true,
          "internalType": "address",
          "name": "maker",
          "type": "address"
        }
      ],
      "name": "OfferCancelled",
      "type": "event"
    },
    {
      "anonymous": false,
      "inputs": [
        {
          "indexed": true,
          "internalType": "uint256",
          "name": "offerId",
          "type": "uint256"
        },
        {
          "indexed": true,
          "internalType": "address",
          "name": "maker",
          "type": "address"
        },
        {
          "indexed": true,
          "internalType": "address",
          "name": "taker",
          "type": "address"
        },
        {
          "indexed": false,
          "internalType": "uint256",
          "name": "fillAmount",
          "type": "uint256"
        },
        {
          "indexed": false,
          "internalType": "uint256",
          "name": "price",
          "type": "uint256"
        },
        {
          "indexed": false,
          "internalType": "uint256",
          "name": "totalCollateral",
          "type": "uint256"
        }
      ],
      "name": "OfferFilled",
      "type": "event"
    },
    {
      "anonymous": false,
      "inputs": [
        {
          "indexed": true,
          "internalType": "uint256",
          "name": "offerId",
          "type": "uint256"
        },
        {
          "indexed": true,
          "internalType": "address",
          "name": "maker",
          "type": "address"
        },
        {
          "indexed": true,
          "internalType": "uint256",
          "name": "marketId",
          "type": "uint256"
        },
        {
          "indexed": false,
          "internalType": "enum Exchange.Side",
          "name": "side",
          "type": "uint8"
        },
        {
          "indexed": false,
          "internalType": "uint256",
          "name": "price",
          "type": "uint256"
        },
        {
          "indexed": false,
          "internalType": "uint256",
          "name": "amount",
          "type": "uint256"
        }
      ],
      "name": "OfferPosted",
      "type": "event"
    },
    {
      "anonymous": false,
      "inputs": [
        {
          "indexed": true,
          "internalType": "address",
          "name": "previousOwner",
          "type": "address"
        },
        {
          "indexed": true,
          "internalType": "address",
          "name": "newOwner",
          "type": "address"
        }
      ],
      "name": "OwnershipTransferred",
      "type": "event"
    },
    {
      "anonymous": false,
      "inputs": [
        {
          "indexed": false,
          "internalType": "bool",
          "name": "paused",
          "type": "bool"
        }
      ],
      "name": "PostingPausedSet",
      "type": "event"
    },
    {
      "inputs": [],
      "name": "BPS_DENOMINATOR",
      "outputs": [
        {
          "internalType": "uint256",
          "name": "",
          "type": "uint256"
        }
      ],
      "stateMutability": "view",
      "type": "function"
    },
    {
      "inputs": [],
      "name": "COLLATERAL_SCALE",
      "outputs": [
        {
          "internalType": "uint256",
          "name": "",
          "type": "uint256"
        }
      ],
      "stateMutability": "view",
      "type": "function"
    },
    {
      "inputs": [],
      "name": "MIN_OFFER_SIZE",
      "outputs": [
        {
          "internalType": "uint256",
          "name": "",
          "type": "uint256"
        }
      ],
      "stateMutability": "view",
      "type": "function"
    },
    {
      "inputs": [],
      "name": "SHARE_SCALE",
      "outputs": [
        {
          "internalType": "uint256",
          "name": "",
          "type": "uint256"
        }
      ],
      "stateMutability": "view",
      "type": "function"
    },
    {
      "inputs": [
        {
          "internalType": "uint256",
          "name": "offerId",
          "type": "uint256"
        }
      ],
      "name": "cancelOffer",
      "outputs": [],
      "stateMutability": "nonpayable",
      "type": "function"
    },
    {
      "inputs": [],
      "name": "collateralToken",
      "outputs": [
        {
          "internalType": "contract IERC20",
          "name": "",
          "type": "address"
        }
      ],
      "stateMutability": "view",
      "type": "function"
    },
    {
      "inputs": [
        {
          "internalType": "uint256",
          "name": "offerId",
          "type": "uint256"
        },
        {
          "internalType": "uint256",
          "name": "fillAmount",
          "type": "uint256"
        }
      ],
      "name": "fillOffer",
      "outputs": [],
      "stateMutability": "nonpayable",
      "type": "function"
    },
    {
      "inputs": [],
      "name": "fillingPaused",
      "outputs": [
        {
          "internalType": "bool",
          "name": "",
          "type": "bool"
        }
      ],
      "stateMutability": "view",
      "type": "function"
    },
    {
      "inputs": [
        {
          "internalType": "address",
          "name": "forwarder",
          "type": "address"
        }
      ],
      "name": "isTrustedForwarder",
      "outputs": [
        {
          "internalType": "bool",
          "name": "",
          "type": "bool"
        }
      ],
      "stateMutability": "view",
      "type": "function"
    },
    {
      "inputs": [],
      "name": "manager",
      "outputs": [
        {
          "internalType": "contract PredictionMarketManager",
          "name": "",
          "type": "address"
        }
      ],
      "stateMutability": "view",
      "type": "function"
    },
    {
      "inputs": [],
      "name": "nextOfferId",
      "outputs": [
        {
          "internalType": "uint256",
          "name": "",
          "type": "uint256"
        }
      ],
      "stateMutability": "view",
      "type": "function"
    },
    {
      "inputs": [
        {
          "internalType": "uint256",
          "name": "",
          "type": "uint256"
        }
      ],
      "name": "offers",
      "outputs": [
        {
          "internalType": "address",
          "name": "maker",
          "type": "address"
        },
        {
          "internalType": "uint256",
          "name": "marketId",
          "type": "uint256"
        },
        {
          "internalType": "enum Exchange.Side",
          "name": "side",
          "type": "uint8"
        },
        {
          "internalType": "uint256",
          "name": "price",
          "type": "uint256"
        },
        {
          "internalType": "uint256",
          "name": "initialAmount",
          "type": "uint256"
        },
        {
          "internalType": "uint256",
          "name": "remainingAmount",
          "type": "uint256"
        },
        {
          "internalType": "enum Exchange.OfferStatus",
          "name": "status",
          "type": "uint8"
        }
      ],
      "stateMutability": "view",
      "type": "function"
    },
    {
      "inputs": [
        {
          "internalType": "address",
          "name": "",
          "type": "address"
        },
        {
          "internalType": "address",
          "name": "",
          "type": "address"
        },
        {
          "internalType": "uint256[]",
          "name": "",
          "type": "uint256[]"
        },
        {
          "internalType": "uint256[]",
          "name": "",
          "type": "uint256[]"
        },
        {
          "internalType": "bytes",
          "name": "",
          "type": "bytes"
        }
      ],
      "name": "onERC1155BatchReceived",
      "outputs": [
        {
          "internalType": "bytes4",
          "name": "",
          "type": "bytes4"
        }
      ],
      "stateMutability": "nonpayable",
      "type": "function"
    },
    {
      "inputs": [
        {
          "internalType": "address",
          "name": "",
          "type": "address"
        },
        {
          "internalType": "address",
          "name": "",
          "type": "address"
        },
        {
          "internalType": "uint256",
          "name": "",
          "type": "uint256"
        },
        {
          "internalType": "uint256",
          "name": "",
          "type": "uint256"
        },
        {
          "internalType": "bytes",
          "name": "",
          "type": "bytes"
        }
      ],
      "name": "onERC1155Received",
      "outputs": [
        {
          "internalType": "bytes4",
          "name": "",
          "type": "bytes4"
        }
      ],
      "stateMutability": "nonpayable",
      "type": "function"
    },
    {
      "inputs": [],
      "name": "outcomeToken",
      "outputs": [
        {
          "internalType": "contract IERC1155",
          "name": "",
          "type": "address"
        }
      ],
      "stateMutability": "view",
      "type": "function"
    },
    {
      "inputs": [],
      "name": "outcomeTokenWithHelpers",
      "outputs": [
        {
          "internalType": "contract OutcomeToken1155",
          "name": "",
          "type": "address"
        }
      ],
      "stateMutability": "view",
      "type": "function"
    },
    {
      "inputs": [],
      "name": "owner",
      "outputs": [
        {
          "internalType": "address",
          "name": "",
          "type": "address"
        }
      ],
      "stateMutability": "view",
      "type": "function"
    },
    {
      "inputs": [
        {
          "internalType": "uint256",
          "name": "marketId",
          "type": "uint256"
        },
        {
          "internalType": "enum Exchange.Side",
          "name": "side",
          "type": "uint8"
        },
        {
          "internalType": "uint256",
          "name": "price",
          "type": "uint256"
        },
        {
          "internalType": "uint256",
          "name": "amount",
          "type": "uint256"
        }
      ],
      "name": "postOffer",
      "outputs": [
        {
          "internalType": "uint256",
          "name": "",
          "type": "uint256"
        }
      ],
      "stateMutability": "nonpayable",
      "type": "function"
    },
    {
      "inputs": [],
      "name": "postingPaused",
      "outputs": [
        {
          "internalType": "bool",
          "name": "",
          "type": "bool"
        }
      ],
      "stateMutability": "view",
      "type": "function"
    },
    {
      "inputs": [
        {
          "internalType": "uint256",
          "name": "offerId",
          "type": "uint256"
        },
        {
          "internalType": "uint256",
          "name": "fillAmount",
          "type": "uint256"
        }
      ],
      "name": "quoteFill",
      "outputs": [
        {
          "internalType": "uint256",
          "name": "totalCollateral",
          "type": "uint256"
        }
      ],
      "stateMutability": "view",
      "type": "function"
    },
    {
      "inputs": [],
      "name": "renounceOwnership",
      "outputs": [],
      "stateMutability": "nonpayable",
      "type": "function"
    },
    {
      "inputs": [
        {
          "internalType": "bool",
          "name": "paused",
          "type": "bool"
        }
      ],
      "name": "setFillingPaused",
      "outputs": [],
      "stateMutability": "nonpayable",
      "type": "function"
    },
    {
      "inputs": [
        {
          "internalType": "bool",
          "name": "paused",
          "type": "bool"
        }
      ],
      "name": "setPostingPaused",
      "outputs": [],
      "stateMutability": "nonpayable",
      "type": "function"
    },
    {
      "inputs": [
        {
          "internalType": "bytes4",
          "name": "interfaceId",
          "type": "bytes4"
        }
      ],
      "name": "supportsInterface",
      "outputs": [
        {
          "internalType": "bool",
          "name": "",
          "type": "bool"
        }
      ],
      "stateMutability": "view",
      "type": "function"
    },
    {
      "inputs": [
        {
          "internalType": "address",
          "name": "newOwner",
          "type": "address"
        }
      ],
      "name": "transferOwnership",
      "outputs": [],
      "stateMutability": "nonpayable",
      "type": "function"
    },
    {
      "inputs": [],
      "name": "trustedForwarder",
      "outputs": [
        {
          "internalType": "address",
          "name": "",
          "type": "address"
        }
      ],
      "stateMutability": "view",
      "type": "function"
    }
  ],
  "transactionHash": "0x320e9a77e2cb1e771aae7328c28a66a19d4ea7288992b1d401628c72f8bdf328",
  "args": [
    "0x5a7F2Db2D8CD430373e5d4d2094eE7639fcDe953",
    "0x27d8A172703Ee0b0A014b4685358c76b2a0FfC02",
    "0x3600000000000000000000000000000000000000",
    "0xB55442867806804Dc2ffbcD4229C6c8536132611",
    "0x1BCB360a5dD929d94a329fE03f8cd4F239A87d71"
  ],
  "numDeployments": 1,
  "solcInputHash": "a6cf1c1cc50282e404ec8b0e9ece1d35",
  "bytecode": "0x61012034620001ab57601f62001a3238819003918201601f19168301916001600160401b03831184841017620001b05780849260a094604052833981010312620001ab576200004e81620001c6565b6200005c60208301620001c6565b906200006b60408401620001c6565b6200008760806200007f60608701620001c6565b9501620001c6565b936001600160a01b03928316938415620001925783928391600054968060018060a01b03198916176000558360405198167f8be0079c531659141344cd1fd0a4f28419497f9722a3daafe3b4186f6b6457e0600080a3600180556080521660a05216928360c0526101009384521660e0526118569182620001dc8339608051828181610c530152818161123c01526117ca015260a05182818161051c0152818161070901528181610a7201528181610e0a0152611001015260c0518281816104150152818161074d0152818161084b01528181610e460152610f70015260e0518281816107f101528181610d1501526112780152518181816112bc01528181611687015261171a0152f35b604051631e4fbdf760e01b815260006004820152602490fd5b600080fd5b634e487b7160e01b600052604160045260246000fd5b51906001600160a01b0382168203620001ab5756fe6040608081526004908136101561001557600080fd5b6000803560e01c8062235e5b1461138457806301ffc9a71461132e57806309a3e34e146113125780630cb5ba68146112eb57806330c3608d146112a7578063481c6a7514611263578063572b6c05146112115780635f5d0655146111f2578063715018a61461119857806378447e7f14610c825780637da0a87714610c3e5780638a72ea6a14610ba25780638da5cb5b14610b7a57806390e125c614610b5657806395caa56b1461077c578063a998d6d814610738578063aac34df514610600578063b2016bd4146106f4578063bc197c811461066e578063c96d536414610605578063d4c3272b14610600578063e1a45218146105df578063ef706adf14610367578063f23a6e6114610312578063f2fde38b1461027d5763f325beda1461013d57600080fd5b3461027a5761014b36611418565b9082528360205282822083519261016184611499565b60018060a01b03938483541681526001830154602082015261018c60ff600285015416878301611622565b6003830154946060820195865287840154608083015260ff600660058601549560a085019687520154169160c0810192600381101561026557835251161561025557519060038210156102425750610232578115908115610227575b50610218576101f8915190611799565b908115610209576020925051908152f35b516374db4dcf60e11b81529050fd5b505051632a16321d60e21b8152fd5b9050518111386101e8565b50505051634d03923160e01b8152fd5b634e487b7160e01b815260218752602490fd5b855163f3ddbcbf60e01b81528790fd5b60218a634e487b7160e01b6000525260246000fd5b80fd5b50913461030e57602036600319011261030e576102986113e7565b906102a1611595565b6001600160a01b039182169283156102f8575050600054826bffffffffffffffffffffffff60a01b821617600055167f8be0079c531659141344cd1fd0a4f28419497f9722a3daafe3b4186f6b6457e0600080a380f35b51631e4fbdf760e01b8152908101849052602490fd5b8280fd5b503461027a5760a036600319011261027a5761032c6113e7565b50610335611402565b506084359067ffffffffffffffff821161027a57506020926103599136910161153e565b505163f23a6e6160e01b8152f35b5091903461030e57602036600319011261030e5781359161038661162e565b828452806020528184209060018060a01b0392838354169182156105d157600684019283549360ff851660038110156105be576105ae5781876103c76117c7565b160361059e5790889493929160016005880195878754975560ff191617905560028601906103f860ff835416611779565b156104c957506104129060ff600188015491541690611651565b867f00000000000000000000000000000000000000000000000000000000000000001687875416813b156104c557868094610462875198899687958694637921219560e11b8652309086016115ee565b03925af19081156104bc57506104a4575b50505b5416907f1f51377b3e685a0e2419f9bb4ba7c07ec54936353ba3d0fb3c6538dab67662228380a36001805580f35b6104ad9061146f565b6104b8578338610473565b8380fd5b513d84823e3d90fd5b8680fd5b905060209194506104e36105169394600388015490611799565b845163a9059cbb60e01b81526001600160a01b039092168683019081526020810191909152909283918291604090910190565b03818a897f0000000000000000000000000000000000000000000000000000000000000000165af1908115610594578791610566575b5015610559575050610476565b516347caa76b60e01b8152fd5b610587915060203d811161058d575b61057f81836114b5565b8101906115d6565b3861054c565b503d610575565b82513d89823e3d90fd5b8351631d15428760e11b81528390fd5b8351634d03923160e01b81528390fd5b634e487b7160e01b8a526021845260248afd5b905163f3ddbcbf60e01b8152fd5b5090346105fc57816003193601126105fc57602090516127108152f35b5080fd5b611451565b50913461030e57602036600319011261030e57359081151580920361030e577f24ed577c416b9675fc9f8966c05e73181a1fef283953f3c9e59973e44b8f5a8f91602091610651611595565b60035461ff008360081b169061ff0019161760035551908152a180f35b503461027a5760a036600319011261027a576106886113e7565b50610691611402565b5067ffffffffffffffff906044358281116105fc576106b390369086016114d7565b506064358281116105fc576106cb90369086016114d7565b5060843591821161027a57506020926106e69136910161153e565b505163bc197c8160e01b8152f35b5090346105fc57816003193601126105fc57517f00000000000000000000000000000000000000000000000000000000000000006001600160a01b03168152602090f35b5090346105fc57816003193601126105fc57517f00000000000000000000000000000000000000000000000000000000000000006001600160a01b03168152602090f35b5090346105fc5760803660031901126105fc57602435908335848310156104b857604435926064356107ac61162e565b60ff60035416610b465784158015610b3b575b610b2b5760018110610b1b57835163d4bf33d360e01b81528781018490526020966001600160a01b03969188816024817f00000000000000000000000000000000000000000000000000000000000000008c165afa908115610b11578291610af4575b5015610ae4576108306117c7565b61083985611779565b15610a28576108488587611651565b887f00000000000000000000000000000000000000000000000000000000000000001690813b156104b85785610899928592838f8d5196879586948593637921219560e11b85528b309186016115ee565b03925af18015610a1e57908391610a0a575b50505b6002549760001989146109f757828a9b92868b809d8b868e9f978f9e9f60018f9a0160025551966108de88611499565b169d8e87528387019283526108f6818801998a611622565b8960608801948d8652608089019688885260a08a0198895260c08a019d8e528a525287209551166bffffffffffffffffffffffff60a01b86541617855551600185015560028401955195878710156109e4579060069493929160ff199760ff89835416911617905551600384015551868301555160058201550193519260038410156109d157505092827fffa24582c7d9d0f507f6b3b9d9876b9f715a9dbfa3d06c5e165d689a20a8e54a959260ff6060968d9996541691161790556109be8951809461142e565b8a83015287820152a46001805551908152f35b634e487b7160e01b825260219052602490fd5b634e487b7160e01b865260218852602486fd5b634e487b7160e01b835260118b52602483fd5b610a139061146f565b6105fc5781386108ab565b88513d85823e3d90fd5b610a328385611799565b8015610ad45787516323b872dd60e01b81526001600160a01b038316818d019081523060208201526040810192909252908a90829081906060010381868d7f0000000000000000000000000000000000000000000000000000000000000000165af1908115610a1e578391610ab7575b506108ae5786516347caa76b60e01b81528a90fd5b610ace91508a3d8c1161058d5761057f81836114b5565b38610aa2565b87516374db4dcf60e11b81528b90fd5b855163c498437960e01b81528990fd5b610b0b9150893d8b1161058d5761057f81836114b5565b38610822565b87513d84823e3d90fd5b8351632a16321d60e21b81528790fd5b8351630c69292f60e01b81528790fd5b5061271085116107bf565b835163026438ed60e21b81528790fd5b5090346105fc57816003193601126105fc5760209060ff6003541690519015158152f35b5090346105fc57816003193601126105fc57905490516001600160a01b039091168152602090f35b5090346105fc5760203660031901126105fc5782358252826020528082209160018060a01b038354169260018101549260ff600283015416610c08600384015491888501549360ff6006600588015497015416978151998a5260208a015288019061142e565b6060860152608085015260a08401526003821015610c2b5760e0838360c0820152f35b634e487b7160e01b815260218452602490fd5b5090346105fc57816003193601126105fc57517f00000000000000000000000000000000000000000000000000000000000000006001600160a01b03168152602090f35b50913461030e57610c9236611418565b610c9a61162e565b60ff60035460081c1661118857818552602083815284862080546001600160a01b03908116969093929091871561117857600681019687549060ff8216600381101561116557611157578515801561114a575b61113c5760018301988954908c6024878b8a519283809263d4bf33d360e01b8252888a8301527f0000000000000000000000000000000000000000000000000000000000000000165afa9182156111315791611114575b501561110457908b969594939291610d5a6117c7565b938a85169d8e146110f457600586018054908b8203908282116110de57558a146110ce575b5050600384019a610d918c548a611799565b9788156110be578e600287019360ff855416610dac81611779565b15610f4b57505050509060ff610dc6925491541690611651565b835486516323b872dd60e01b81526001600160a01b03808616858301908152928c16166020830152604082018990528e91879082908d9082908690829060600103927f0000000000000000000000000000000000000000000000000000000000000000165af1918215610f405791610f23575b5015610f1457908c9291897f000000000000000000000000000000000000000000000000000000000000000016803b15610f10578993858094610e918b5197889687958694637921219560e11b8652309086016115ee565b03925af18015610f0657610ee4575b5050907f073e686829a5ce45b6f8a9d60be80528e5a896310b94e10babe463d231f9a025956060959493925b54169754908251948552840152820152a46001805580f35b610ef39096959493929661146f565b610f0257909192938938610ea0565b8980fd5b85513d84823e3d90fd5b8480fd5b5084516347caa76b60e01b8152fd5b610f3a9150863d881161058d5761057f81836114b5565b38610e39565b8851903d90823e3d90fd5b610f6c939550610f66919294509c98999a9b9c969596611761565b90611651565b91867f000000000000000000000000000000000000000000000000000000000000000016803b1561030e57610fba93838d938c5196879586948593637921219560e11b85528b8d86016115ee565b03925af180156110b45761109b575b50855163a9059cbb60e01b81526001600160a01b0390911682820190815260208101889052859082908e90829081906040015b0391887f0000000000000000000000000000000000000000000000000000000000000000165af1908115611091578c91611074575b50156110665750917f073e686829a5ce45b6f8a9d60be80528e5a896310b94e10babe463d231f9a02595939160609593610ecc565b84516347caa76b60e01b8152fd5b61108b9150853d871161058d5761057f81836114b5565b38611031565b86513d8e823e3d90fd5b87610ffc929d6110ab889361146f565b9d925050610fc9565b87513d8f823e3d90fd5b87516374db4dcf60e11b81528490fd5b60ff191660021790553880610d7f565b50505060248f601186634e487b7160e01b835252fd5b875163aff46e0560e01b81528490fd5b865163c498437960e01b81528390fd5b61112b9150873d891161058d5761057f81836114b5565b38610d44565b8951903d90823e3d90fd5b8451632a16321d60e21b8152fd5b5060058301548611610ced565b8451634d03923160e01b8152fd5b634e487b7160e01b8c526021825260248cfd5b825163f3ddbcbf60e01b81528790fd5b83516360993f3360e11b81528390fd5b503461027a578060031936011261027a576111b1611595565b80546001600160a01b03198116825581906001600160a01b03167f8be0079c531659141344cd1fd0a4f28419497f9722a3daafe3b4186f6b6457e08280a380f35b5090346105fc57816003193601126105fc576020906002549051908152f35b5090346105fc5760203660031901126105fc5760209061122f6113e7565b90519060018060a01b03807f0000000000000000000000000000000000000000000000000000000000000000169116148152f35b5090346105fc57816003193601126105fc57517f00000000000000000000000000000000000000000000000000000000000000006001600160a01b03168152602090f35b5090346105fc57816003193601126105fc57517f00000000000000000000000000000000000000000000000000000000000000006001600160a01b03168152602090f35b5090346105fc57816003193601126105fc5760209060ff60035460081c1690519015158152f35b5090346105fc57816003193601126105fc576020905160018152f35b50913461030e57602036600319011261030e57359063ffffffff60e01b821680920361030e5760209250630271189760e51b8214918215611373575b50519015158152f35b6301ffc9a760e01b1491503861136a565b50913461030e57602036600319011261030e57359081151580920361030e577f9cbc1cb273b018477220485fb27a27fab4c4bed5e847a88c267cf74879ee36b2916020916113d0611595565b60ff196003541660ff83161760035551908152a180f35b600435906001600160a01b03821682036113fd57565b600080fd5b602435906001600160a01b03821682036113fd57565b60409060031901126113fd576004359060243590565b90600482101561143b5752565b634e487b7160e01b600052602160045260246000fd5b346113fd5760003660031901126113fd576020604051620f42408152f35b67ffffffffffffffff811161148357604052565b634e487b7160e01b600052604160045260246000fd5b60e0810190811067ffffffffffffffff82111761148357604052565b90601f8019910116810190811067ffffffffffffffff82111761148357604052565b9080601f830112156113fd5781359067ffffffffffffffff8211611483578160051b6040519360209361150c858401876114b5565b855283808601928201019283116113fd578301905b82821061152f575050505090565b81358152908301908301611521565b81601f820112156113fd5780359067ffffffffffffffff82116114835760405192611573601f8401601f1916602001856114b5565b828452602083830101116113fd57816000926020809301838601378301015290565b6000546001600160a01b03908116816115ac6117c7565b16036115b55750565b6024906115c06117c7565b60405163118cdaa760e01b815291166004820152fd5b908160209103126113fd575180151581036113fd5790565b929060c0949260018060a01b0380921685521660208401526040830152606082015260a06080820152600060a08201520190565b600482101561143b5752565b60026001541461163f576002600155565b604051633ee5aeb560e01b8152600490fd5b90600481101561143b578015908115611756575b506116fd5760405163a45569c560e01b815260048101919091526020816024817f00000000000000000000000000000000000000000000000000000000000000006001600160a01b03165afa9081156116f1576000916116c3575090565b906020823d82116116e9575b816116dc602093836114b5565b8101031261027a57505190565b3d91506116cf565b6040513d6000823e3d90fd5b60405163138a645b60e31b815260048101919091526020816024817f00000000000000000000000000000000000000000000000000000000000000006001600160a01b03165afa9081156116f1576000916116c3575090565b600291501438611665565b600481101561143b571561177457600390565b600290565b600481101561143b5760028114908115611791575090565b600391501490565b8181029181830414901517156117b157612710900490565b634e487b7160e01b600052601160045260246000fd5b337f00000000000000000000000000000000000000000000000000000000000000006001600160a01b03161480611815575b156118115760131936013681116117b1573560601c90565b3390565b5060143610156117f956fea2646970667358221220fee656b6f75867263db2f87c88200a56cfc3672c39c029d7adf057a2528d2e6064736f6c63430008140033",
  "devdoc": {
    "errors": {
      "OwnableInvalidOwner(address)": [
        {
          "details": "The owner is not a valid owner account. (eg. `address(0)`)"
        }
      ],
      "OwnableUnauthorizedAccount(address)": [
        {
          "details": "The caller account is not authorized to perform an operation."
        }
      ],
      "ReentrancyGuardReentrantCall()": [
        {
          "details": "Unauthorized reentrant call."
        }
      ]
    },
    "kind": "dev",
    "methods": {
      "isTrustedForwarder(address)": {
        "details": "Indicates whether any particular address is the trusted forwarder."
      },
      "owner()": {
        "details": "Returns the address of the current owner."
      },
      "renounceOwnership()": {
        "details": "Leaves the contract without owner. It will not be possible to call `onlyOwner` functions. Can only be called by the current owner. NOTE: Renouncing ownership will leave the contract without an owner, thereby disabling any functionality that is only available to the owner."
      },
      "supportsInterface(bytes4)": {
        "details": "See {IERC165-supportsInterface}."
      },
      "transferOwnership(address)": {
        "details": "Transfers ownership of the contract to a new account (`newOwner`). Can only be called by the current owner."
      },
      "trustedForwarder()": {
        "details": "Returns the address of the trusted forwarder."
      }
    },
    "version": 1
  },
  "userdoc": {
    "kind": "user",
    "methods": {},
    "version": 1
  },
  "storageLayout": {
    "storage": [
      {
        "astId": 8,
        "contract": "contracts/Exchange.sol:Exchange",
        "label": "_owner",
        "offset": 0,
        "slot": "0",
        "type": "t_address"
      },
      {
        "astId": 2042,
        "contract": "contracts/Exchange.sol:Exchange",
        "label": "_status",
        "offset": 0,
        "slot": "1",
        "type": "t_uint256"
      },
      {
        "astId": 3402,
        "contract": "contracts/Exchange.sol:Exchange",
        "label": "nextOfferId",
        "offset": 0,
        "slot": "2",
        "type": "t_uint256"
      },
      {
        "astId": 3404,
        "contract": "contracts/Exchange.sol:Exchange",
        "label": "postingPaused",
        "offset": 0,
        "slot": "3",
        "type": "t_bool"
      },
      {
        "astId": 3406,
        "contract": "contracts/Exchange.sol:Exchange",
        "label": "fillingPaused",
        "offset": 1,
        "slot": "3",
        "type": "t_bool"
      },
      {
        "astId": 3411,
        "contract": "contracts/Exchange.sol:Exchange",
        "label": "offers",
        "offset": 0,
        "slot": "4",
        "type": "t_mapping(t_uint256,t_struct(Offer)3376_storage)"
      }
    ],
    "types": {
      "t_address": {
        "encoding": "inplace",
        "label": "address",
        "numberOfBytes": "20"
      },
      "t_bool": {
        "encoding": "inplace",
        "label": "bool",
        "numberOfBytes": "1"
      },
      "t_enum(OfferStatus)3359": {
        "encoding": "inplace",
        "label": "enum Exchange.OfferStatus",
        "numberOfBytes": "1"
      },
      "t_enum(Side)3355": {
        "encoding": "inplace",
        "label": "enum Exchange.Side",
        "numberOfBytes": "1"
      },
      "t_mapping(t_uint256,t_struct(Offer)3376_storage)": {
        "encoding": "mapping",
        "key": "t_uint256",
        "label": "mapping(uint256 => struct Exchange.Offer)",
        "numberOfBytes": "32",
        "value": "t_struct(Offer)3376_storage"
      },
      "t_struct(Offer)3376_storage": {
        "encoding": "inplace",
        "label": "struct Exchange.Offer",
        "members": [
          {
            "astId": 3361,
            "contract": "contracts/Exchange.sol:Exchange",
            "label": "maker",
            "offset": 0,
            "slot": "0",
            "type": "t_address"
          },
          {
            "astId": 3363,
            "contract": "contracts/Exchange.sol:Exchange",
            "label": "marketId",
            "offset": 0,
            "slot": "1",
            "type": "t_uint256"
          },
          {
            "astId": 3366,
            "contract": "contracts/Exchange.sol:Exchange",
            "label": "side",
            "offset": 0,
            "slot": "2",
            "type": "t_enum(Side)3355"
          },
          {
            "astId": 3368,
            "contract": "contracts/Exchange.sol:Exchange",
            "label": "price",
            "offset": 0,
            "slot": "3",
            "type": "t_uint256"
          },
          {
            "astId": 3370,
            "contract": "contracts/Exchange.sol:Exchange",
            "label": "initialAmount",
            "offset": 0,
            "slot": "4",
            "type": "t_uint256"
          },
          {
            "astId": 3372,
            "contract": "contracts/Exchange.sol:Exchange",
            "label": "remainingAmount",
            "offset": 0,
            "slot": "5",
            "type": "t_uint256"
          },
          {
            "astId": 3375,
            "contract": "contracts/Exchange.sol:Exchange",
            "label": "status",
            "offset": 0,
            "slot": "6",
            "type": "t_enum(OfferStatus)3359"
          }
        ],
        "numberOfBytes": "224"
      },
      "t_uint256": {
        "encoding": "inplace",
        "label": "uint256",
        "numberOfBytes": "32"
      }
    }
  }
}