{
  "address": "0x1E1e4834Ba05D93DAd647c33b4cA3aF579F3f59D",
  "abi": [
    {
      "inputs": [
        {
          "internalType": "string",
          "name": "baseUri",
          "type": "string"
        },
        {
          "internalType": "address",
          "name": "initialOwner",
          "type": "address"
        }
      ],
      "stateMutability": "nonpayable",
      "type": "constructor"
    },
    {
      "inputs": [
        {
          "internalType": "address",
          "name": "sender",
          "type": "address"
        },
        {
          "internalType": "uint256",
          "name": "balance",
          "type": "uint256"
        },
        {
          "internalType": "uint256",
          "name": "needed",
          "type": "uint256"
        },
        {
          "internalType": "uint256",
          "name": "tokenId",
          "type": "uint256"
        }
      ],
      "name": "ERC1155InsufficientBalance",
      "type": "error"
    },
    {
      "inputs": [
        {
          "internalType": "address",
          "name": "approver",
          "type": "address"
        }
      ],
      "name": "ERC1155InvalidApprover",
      "type": "error"
    },
    {
      "inputs": [
        {
          "internalType": "uint256",
          "name": "idsLength",
          "type": "uint256"
        },
        {
          "internalType": "uint256",
          "name": "valuesLength",
          "type": "uint256"
        }
      ],
      "name": "ERC1155InvalidArrayLength",
      "type": "error"
    },
    {
      "inputs": [
        {
          "internalType": "address",
          "name": "operator",
          "type": "address"
        }
      ],
      "name": "ERC1155InvalidOperator",
      "type": "error"
    },
    {
      "inputs": [
        {
          "internalType": "address",
          "name": "receiver",
          "type": "address"
        }
      ],
      "name": "ERC1155InvalidReceiver",
      "type": "error"
    },
    {
      "inputs": [
        {
          "internalType": "address",
          "name": "sender",
          "type": "address"
        }
      ],
      "name": "ERC1155InvalidSender",
      "type": "error"
    },
    {
      "inputs": [
        {
          "internalType": "address",
          "name": "operator",
          "type": "address"
        },
        {
          "internalType": "address",
          "name": "owner",
          "type": "address"
        }
      ],
      "name": "ERC1155MissingApprovalForAll",
      "type": "error"
    },
    {
      "inputs": [],
      "name": "OutcomeToken1155__ExchangeAlreadySet",
      "type": "error"
    },
    {
      "inputs": [],
      "name": "OutcomeToken1155__ManagerAlreadySet",
      "type": "error"
    },
    {
      "inputs": [],
      "name": "OutcomeToken1155__OnlyManager",
      "type": "error"
    },
    {
      "inputs": [],
      "name": "OutcomeToken1155__ZeroAddress",
      "type": "error"
    },
    {
      "inputs": [
        {
          "internalType": "address",
          "name": "owner",
          "type": "address"
        }
      ],
      "name": "OwnableInvalidOwner",
      "type": "error"
    },
    {
      "inputs": [
        {
          "internalType": "address",
          "name": "account",
          "type": "address"
        }
      ],
      "name": "OwnableUnauthorizedAccount",
      "type": "error"
    },
    {
      "anonymous": false,
      "inputs": [
        {
          "indexed": true,
          "internalType": "address",
          "name": "account",
          "type": "address"
        },
        {
          "indexed": true,
          "internalType": "address",
          "name": "operator",
          "type": "address"
        },
        {
          "indexed": false,
          "internalType": "bool",
          "name": "approved",
          "type": "bool"
        }
      ],
      "name": "ApprovalForAll",
      "type": "event"
    },
    {
      "anonymous": false,
      "inputs": [
        {
          "indexed": true,
          "internalType": "address",
          "name": "previousOwner",
          "type": "address"
        },
        {
          "indexed": true,
          "internalType": "address",
          "name": "newOwner",
          "type": "address"
        }
      ],
      "name": "OwnershipTransferred",
      "type": "event"
    },
    {
      "anonymous": false,
      "inputs": [
        {
          "indexed": true,
          "internalType": "address",
          "name": "operator",
          "type": "address"
        },
        {
          "indexed": true,
          "internalType": "address",
          "name": "from",
          "type": "address"
        },
        {
          "indexed": true,
          "internalType": "address",
          "name": "to",
          "type": "address"
        },
        {
          "indexed": false,
          "internalType": "uint256[]",
          "name": "ids",
          "type": "uint256[]"
        },
        {
          "indexed": false,
          "internalType": "uint256[]",
          "name": "values",
          "type": "uint256[]"
        }
      ],
      "name": "TransferBatch",
      "type": "event"
    },
    {
      "anonymous": false,
      "inputs": [
        {
          "indexed": true,
          "internalType": "address",
          "name": "operator",
          "type": "address"
        },
        {
          "indexed": true,
          "internalType": "address",
          "name": "from",
          "type": "address"
        },
        {
          "indexed": true,
          "internalType": "address",
          "name": "to",
          "type": "address"
        },
        {
          "indexed": false,
          "internalType": "uint256",
          "name": "id",
          "type": "uint256"
        },
        {
          "indexed": false,
          "internalType": "uint256",
          "name": "value",
          "type": "uint256"
        }
      ],
      "name": "TransferSingle",
      "type": "event"
    },
    {
      "anonymous": false,
      "inputs": [
        {
          "indexed": false,
          "internalType": "string",
          "name": "value",
          "type": "string"
        },
        {
          "indexed": true,
          "internalType": "uint256",
          "name": "id",
          "type": "uint256"
        }
      ],
      "name": "URI",
      "type": "event"
    },
    {
      "inputs": [
        {
          "internalType": "address",
          "name": "account",
          "type": "address"
        },
        {
          "internalType": "uint256",
          "name": "id",
          "type": "uint256"
        }
      ],
      "name": "balanceOf",
      "outputs": [
        {
          "internalType": "uint256",
          "name": "",
          "type": "uint256"
        }
      ],
      "stateMutability": "view",
      "type": "function"
    },
    {
      "inputs": [
        {
          "internalType": "address[]",
          "name": "accounts",
          "type": "address[]"
        },
        {
          "internalType": "uint256[]",
          "name": "ids",
          "type": "uint256[]"
        }
      ],
      "name": "balanceOfBatch",
      "outputs": [
        {
          "internalType": "uint256[]",
          "name": "",
          "type": "uint256[]"
        }
      ],
      "stateMutability": "view",
      "type": "function"
    },
    {
      "inputs": [
        {
          "internalType": "address",
          "name": "from",
          "type": "address"
        },
        {
          "internalType": "uint256",
          "name": "id",
          "type": "uint256"
        },
        {
          "internalType": "uint256",
          "name": "amount",
          "type": "uint256"
        }
      ],
      "name": "burn",
      "outputs": [],
      "stateMutability": "nonpayable",
      "type": "function"
    },
    {
      "inputs": [],
      "name": "exchange",
      "outputs": [
        {
          "internalType": "address",
          "name": "",
          "type": "address"
        }
      ],
      "stateMutability": "view",
      "type": "function"
    },
    {
      "inputs": [
        {
          "internalType": "uint256",
          "name": "tokenId",
          "type": "uint256"
        }
      ],
      "name": "getMarketId",
      "outputs": [
        {
          "internalType": "uint256",
          "name": "",
          "type": "uint256"
        }
      ],
      "stateMutability": "pure",
      "type": "function"
    },
    {
      "inputs": [
        {
          "internalType": "uint256",
          "name": "marketId",
          "type": "uint256"
        }
      ],
      "name": "getNoTokenId",
      "outputs": [
        {
          "internalType": "uint256",
          "name": "",
          "type": "uint256"
        }
      ],
      "stateMutability": "pure",
      "type": "function"
    },
    {
      "inputs": [
        {
          "internalType": "uint256",
          "name": "marketId",
          "type": "uint256"
        }
      ],
      "name": "getYesTokenId",
      "outputs": [
        {
          "internalType": "uint256",
          "name": "",
          "type": "uint256"
        }
      ],
      "stateMutability": "pure",
      "type": "function"
    },
    {
      "inputs": [
        {
          "internalType": "address",
          "name": "account",
          "type": "address"
        },
        {
          "internalType": "address",
          "name": "operator",
          "type": "address"
        }
      ],
      "name": "isApprovedForAll",
      "outputs": [
        {
          "internalType": "bool",
          "name": "",
          "type": "bool"
        }
      ],
      "stateMutability": "view",
      "type": "function"
    },
    {
      "inputs": [
        {
          "internalType": "uint256",
          "name": "tokenId",
          "type": "uint256"
        }
      ],
      "name": "isYes",
      "outputs": [
        {
          "internalType": "bool",
          "name": "",
          "type": "bool"
        }
      ],
      "stateMutability": "pure",
      "type": "function"
    },
    {
      "inputs": [],
      "name": "manager",
      "outputs": [
        {
          "internalType": "address",
          "name": "",
          "type": "address"
        }
      ],
      "stateMutability": "view",
      "type": "function"
    },
    {
      "inputs": [
        {
          "internalType": "address",
          "name": "to",
          "type": "address"
        },
        {
          "internalType": "uint256",
          "name": "id",
          "type": "uint256"
        },
        {
          "internalType": "uint256",
          "name": "amount",
          "type": "uint256"
        }
      ],
      "name": "mint",
      "outputs": [],
      "stateMutability": "nonpayable",
      "type": "function"
    },
    {
      "inputs": [],
      "name": "owner",
      "outputs": [
        {
          "internalType": "address",
          "name": "",
          "type": "address"
        }
      ],
      "stateMutability": "view",
      "type": "function"
    },
    {
      "inputs": [],
      "name": "renounceOwnership",
      "outputs": [],
      "stateMutability": "nonpayable",
      "type": "function"
    },
    {
      "inputs": [
        {
          "internalType": "address",
          "name": "from",
          "type": "address"
        },
        {
          "internalType": "address",
          "name": "to",
          "type": "address"
        },
        {
          "internalType": "uint256[]",
          "name": "ids",
          "type": "uint256[]"
        },
        {
          "internalType": "uint256[]",
          "name": "values",
          "type": "uint256[]"
        },
        {
          "internalType": "bytes",
          "name": "data",
          "type": "bytes"
        }
      ],
      "name": "safeBatchTransferFrom",
      "outputs": [],
      "stateMutability": "nonpayable",
      "type": "function"
    },
    {
      "inputs": [
        {
          "internalType": "address",
          "name": "from",
          "type": "address"
        },
        {
          "internalType": "address",
          "name": "to",
          "type": "address"
        },
        {
          "internalType": "uint256",
          "name": "id",
          "type": "uint256"
        },
        {
          "internalType": "uint256",
          "name": "value",
          "type": "uint256"
        },
        {
          "internalType": "bytes",
          "name": "data",
          "type": "bytes"
        }
      ],
      "name": "safeTransferFrom",
      "outputs": [],
      "stateMutability": "nonpayable",
      "type": "function"
    },
    {
      "inputs": [
        {
          "internalType": "address",
          "name": "operator",
          "type": "address"
        },
        {
          "internalType": "bool",
          "name": "approved",
          "type": "bool"
        }
      ],
      "name": "setApprovalForAll",
      "outputs": [],
      "stateMutability": "nonpayable",
      "type": "function"
    },
    {
      "inputs": [
        {
          "internalType": "address",
          "name": "newExchange",
          "type": "address"
        }
      ],
      "name": "setExchange",
      "outputs": [],
      "stateMutability": "nonpayable",
      "type": "function"
    },
    {
      "inputs": [
        {
          "internalType": "address",
          "name": "newManager",
          "type": "address"
        }
      ],
      "name": "setManager",
      "outputs": [],
      "stateMutability": "nonpayable",
      "type": "function"
    },
    {
      "inputs": [
        {
          "internalType": "bytes4",
          "name": "interfaceId",
          "type": "bytes4"
        }
      ],
      "name": "supportsInterface",
      "outputs": [
        {
          "internalType": "bool",
          "name": "",
          "type": "bool"
        }
      ],
      "stateMutability": "view",
      "type": "function"
    },
    {
      "inputs": [
        {
          "internalType": "address",
          "name": "newOwner",
          "type": "address"
        }
      ],
      "name": "transferOwnership",
      "outputs": [],
      "stateMutability": "nonpayable",
      "type": "function"
    },
    {
      "inputs": [
        {
          "internalType": "uint256",
          "name": "",
          "type": "uint256"
        }
      ],
      "name": "uri",
      "outputs": [
        {
          "internalType": "string",
          "name": "",
          "type": "string"
        }
      ],
      "stateMutability": "view",
      "type": "function"
    }
  ],
  "transactionHash": "0x821a493f5bb0e126dc6f1ee696297c0c226581235fa1d381a6e54e90a1f61c8d",
  "args": [
    "https://agora.example/metadata/{id}.json",
    "0x5a7F2Db2D8CD430373e5d4d2094eE7639fcDe953"
  ],
  "numDeployments": 1,
  "solcInputHash": "f6b8c6ed0f8611f38ae2a9cc22623438",
  "bytecode": "0x6080604052346200027c57620019cd803803806200001d8162000296565b9283398101906040818303126200027c5780516001600160401b03908181116200027c57820190601f928484840112156200027c578251908282116200026657602091601f1994620000758487898501160162000296565b978289528483830101116200027c579083929160005b82811062000281575050600090880183015201516001600160a01b039586821695918690036200027c5780519384116200026657600254926001938481811c911680156200025b575b828210146200024557838111620001f9575b50809285116001146200018e57508394509083929160009462000182575b50501b916000199060031b1c1916176002555b80156200016957600380546001600160a01b03198116831790915560405192167f8be0079c531659141344cd1fd0a4f28419497f9722a3daafe3b4186f6b6457e0600080a36117109081620002bd8239f35b604051631e4fbdf760e01b815260006004820152602490fd5b01519250388062000104565b929484908116600260005284600020946000905b88838310620001de5750505010620001c4575b505050811b0160025562000117565b015160001960f88460031b161c19169055388080620001b5565b858701518855909601959485019487935090810190620001a2565b6002600052816000208480880160051c8201928489106200023b575b0160051c019085905b8281106200022e575050620000e6565b600081550185906200021e565b9250819262000215565b634e487b7160e01b600052602260045260246000fd5b90607f1690620000d4565b634e487b7160e01b600052604160045260246000fd5b600080fd5b8181018501518a82018601528594016200008b565b6040519190601f01601f191682016001600160401b03811183821017620002665760405256fe6080604052600436101561001257600080fd5b60003560e01c8062fdd58e1461016657806301ffc9a7146101615780630e89341c1461015c5780630f610f0514610157578063156e29f61461015257806319cac4951461014d5780632eb2c2d614610148578063481c6a75146101435780634e1273f41461013e57806367b1f5df14610139578063715018a6146101345780638da5cb5b1461012f5780639c5322d81461012a578063a22cb46514610125578063a45569c514610120578063d0ebdbe71461011b578063d2f7265a14610116578063e985e9c514610111578063f242432a1461010c578063f2fde38b146101075763f5298aca1461010257600080fd5b610e12565b610d84565b610c79565b610c43565b610c1a565b610bbb565b610b7e565b610ac1565b610a8a565b610a61565b610a00565b61098f565b6108d5565b610867565b610751565b6105fe565b610421565b6103d7565b6102d1565b61020f565b6101b0565b600435906001600160a01b038216820361018157565b600080fd5b602435906001600160a01b038216820361018157565b35906001600160a01b038216820361018157565b346101815760403660031901126101815760206101f46101ce61016b565b6024356000526000835260406000209060018060a01b0316600052602052604060002090565b54604051908152f35b6001600160e01b031981160361018157565b3461018157602036600319011261018157602060043561022e816101fd565b63ffffffff60e01b16636cdb3d1360e11b811490811561026c575b811561025b575b506040519015158152f35b6301ffc9a760e01b14905038610250565b6303a24d0760e21b81149150610249565b919082519283825260005b8481106102a9575050826000602080949584010152601f8019910116010190565b602081830181015184830182015201610288565b9060206102ce92818152019061027d565b90565b3461018157602080600319360112610181576040519060009060025460019181831c928083169283156103cd575b82851084146103b957848752602087019390811561039a5750600114610340575b61033c8661033081880382610656565b604051918291826102bd565b0390f35b6002600090815294509192917f405787fa12a823e0f2b7631cc41b3ba8828b3321ca811111fa75cd3aa3bb5ace5b83861061038957505050910190506103308261033c38610320565b80548587015294820194810161036e565b60ff1916845250505090151560051b0190506103308261033c38610320565b634e487b7160e01b86526022600452602486fd5b93607f16936102ff565b3461018157602036600319011261018157602060405160043560011c8152f35b6060906003190112610181576004356001600160a01b038116810361018157906024359060443590565b346101815761042f366103f7565b6004546001600160a01b039390841633036105ec576040519161045183610635565b60009485845282169384156105d3579061048860405192600184526020840152604083019160018352606084015260808301604052565b9281518451908181036105b1575050855b82518110156104fd57806104f89160051b6104f16104e9876104d2602080868b010151958c010151946000526000602052604060002090565b9060018060a01b0316600052602052604060002090565b91825461131f565b9055611044565b610499565b50929193600182511460001461057657602082810151848201516040805192835292820152879133917fc3d58168c5ae7397731d063d5bbf3d657854427343f4c083240f7aacaa2d0f629190a45b805160010361056c57906020806105699593015191015191336113fa565b80f35b610569933361160b565b856040517f4a39dc06d4c0dbc64b70af90fd698a233a518aa5d07e595d983b8c0526c8f7fb3391806105a988888361132c565b0390a461054b565b604051635b05999160e01b815260048101919091526024810191909152604490fd5b604051632bfa23e760e11b815260048101879052602490fd5b6040516322f2302760e21b8152600490fd5b34610181576020366003190112610181576020604051600160043516158152f35b634e487b7160e01b600052604160045260246000fd5b6020810190811067ffffffffffffffff82111761065157604052565b61061f565b90601f8019910116810190811067ffffffffffffffff82111761065157604052565b67ffffffffffffffff81116106515760051b60200190565b81601f82011215610181578035916106a783610678565b926106b56040519485610656565b808452602092838086019260051b820101928311610181578301905b8282106106df575050505090565b813581529083019083016106d1565b67ffffffffffffffff811161065157601f01601f191660200190565b81601f8201121561018157803590610721826106ee565b9261072f6040519485610656565b8284526020838301011161018157816000926020809301838601378301015290565b346101815760a03660031901126101815761076a61016b565b610772610186565b906044359167ffffffffffffffff908184116101815761079760049436908601610690565b90606435838111610181576107af9036908701610690565b92608435908111610181576107c7903690870161070a565b936001600160a01b03808216903382141580610856575b6108295783161561081157156107fa576107f89550611120565b005b604051626a0d4560e21b8152600081880152602490fd5b604051632bfa23e760e11b8152600081890152602490fd5b6040805163711bec9160e11b815233818b019081526001600160a01b038616602082015290918291010390fd5b506108613384611677565b156107de565b34610181576000366003190112610181576004546040516001600160a01b039091168152602090f35b90815180825260208080930193019160005b8281106108b0575050505090565b8351855293810193928101926001016108a2565b9060206102ce928181520190610890565b346101815760403660031901126101815760043567ffffffffffffffff808211610181573660238301121561018157816004013561091281610678565b926109206040519485610656565b81845260209160248386019160051b8301019136831161018157602401905b82821061097857856024358681116101815761033c9161096661096c923690600401610690565b9061107d565b604051918291826108c4565b8380916109848461019c565b81520191019061093f565b34610181576020366003190112610181576109a861016b565b6109b0611002565b6001600160a01b039081169081156109ee576005549081166109dc576001600160a01b03191617600555005b60405163351b6c7f60e11b8152600490fd5b604051630471981b60e41b8152600490fd5b3461018157600080600319360112610a5e57610a1a611002565b600380546001600160a01b0319811690915581906001600160a01b03167f8be0079c531659141344cd1fd0a4f28419497f9722a3daafe3b4186f6b6457e08280a380f35b80fd5b34610181576000366003190112610181576003546040516001600160a01b039091168152602090f35b34610181576020366003190112610181576004358060011b9080820460021490151715610abc57602090604051908152f35b61102e565b3461018157604036600319011261018157610ada61016b565b602435801515808203610181576001600160a01b038316928315610b66573360009081526001602090815260408083206001600160a01b039094168352929052209060ff801983541691161790557f17307eab39ab6107e8899845ad3d59bd9653f200f220920489ca2b5937696c3160405180610b61339482919091602081019215159052565b0390a3005b60405162ced3e160e81b815260006004820152602490fd5b34610181576020366003190112610181576004358060011b9080820460021490151715610abc5760018101809111610abc57602090604051908152f35b3461018157602036600319011261018157610bd461016b565b610bdc611002565b6001600160a01b039081169081156109ee57600454908116610c08576001600160a01b03191617600455005b604051634a3aea9360e11b8152600490fd5b34610181576000366003190112610181576005546040516001600160a01b039091168152602090f35b34610181576040366003190112610181576020610c6f610c6161016b565b610c69610186565b90611677565b6040519015158152f35b346101815760a036600319011261018157610c9261016b565b610c9a610186565b60843567ffffffffffffffff811161018157610cba90369060040161070a565b906001600160a01b03838116903382141580610d73575b610d4c57821615610d335715610d1b576107f892610d136064356044359160405192600184526020840152604083019160018352606084015260808301604052565b929091611120565b604051626a0d4560e21b815260006004820152602490fd5b604051632bfa23e760e11b815260006004820152602490fd5b60405163711bec9160e11b81523360048201526001600160a01b0386166024820152604490fd5b50610d7e3386611677565b15610cd1565b3461018157602036600319011261018157610d9d61016b565b610da5611002565b6001600160a01b03908116908115610df957600354826bffffffffffffffffffffffff60a01b821617600355167f8be0079c531659141344cd1fd0a4f28419497f9722a3daafe3b4186f6b6457e0600080a3005b604051631e4fbdf760e01b815260006004820152602490fd5b3461018157610e20366103f7565b600480549091906001600160a01b039081163303610ff1578416928315610fda5790610e6960405192600184526020840152604083019160018352606084015260808301604052565b91906040908151610e7981610635565b600080915281518551808203610fb6575050805b8251811015610f30578060051b8860208083870101519289010151610ec0826104d2856000526000602052604060002090565b54818110610ef357916104d2610ee892610eee96959403936000526000602052604060002090565b55611044565b610e8d565b87516303dee4c560e01b81526001600160a01b03909316838a01908152602081019190915260408101919091526060810183905281906080010390fd5b5085858483946001815114600014610f845760209081015192810151915192835282015233907fc3d58168c5ae7397731d063d5bbf3d657854427343f4c083240f7aacaa2d0f629080604081015b0390a480f35b905133927f4a39dc06d4c0dbc64b70af90fd698a233a518aa5d07e595d983b8c0526c8f7fb928291610f7e918361132c565b8451635b05999160e01b815280870192835260208301919091529081906040010390fd5b604051626a0d4560e21b8152600081850152602490fd5b6040516322f2302760e21b81528390fd5b6003546001600160a01b0316330361101657565b60405163118cdaa760e01b8152336004820152602490fd5b634e487b7160e01b600052601160045260246000fd5b6000198114610abc5760010190565b80518210156110675760209160051b010190565b634e487b7160e01b600052603260045260246000fd5b919091805183518082036105b157505080519061109982610678565b916110a76040519384610656565b8083526110b6601f1991610678565b0190602091368385013760005b815181101561111857600581901b8281018401519087018401516000908152602081815260408083206001600160a01b0390941683529290522054611113919061110d8287611053565b52611044565b6110c3565b509193505050565b9491909181518451908181036105b157505060005b825181101561122957600581901b83810160209081015191870101516001600160a01b03929186908a85166111a2575b61117894821661117d575b505050611044565b611135565b611198916104d26104e9926000526000602052604060002090565b9055388581611170565b91929390506111bf8a6104d2846000526000602052604060002090565b548381106111f25791879184611178969594036111ea8d6104d2856000526000602052604060002090565b559450611165565b6040516303dee4c560e01b81526001600160a01b038c16600482015260248101919091526044810184905260648101839052608490fd5b5094919392909360018551146000146112d4576020858101518382015160408051928352928201526001600160a01b03838116929086169133917fc3d58168c5ae7397731d063d5bbf3d657854427343f4c083240f7aacaa2d0f6291a45b6001600160a01b03811661129d575b5050505050565b84516001036112c3576020806112b996015192015192336114f4565b3880808080611296565b6112cf94919233611640565b6112b9565b6040516001600160a01b03828116919085169033907f4a39dc06d4c0dbc64b70af90fd698a233a518aa5d07e595d983b8c0526c8f7fb9080611317888c8361132c565b0390a4611287565b91908201809211610abc57565b90916113436102ce93604084526040840190610890565b916020818403910152610890565b9081602091031261018157516102ce816101fd565b909260a0926102ce9594600180861b031683526000602084015260408301526060820152816080820152019061027d565b91926102ce95949160a094600180871b03809216855216602084015260408301526060820152816080820152019061027d565b3d156113f5573d906113db826106ee565b916113e96040519384610656565b82523d6000602084013e565b606090565b9293919093843b61140c575050505050565b60209161142f604051948593849363f23a6e6160e01b9889865260048601611366565b038160006001600160a01b0388165af1600091816114c4575b5061148757826114566113ca565b805191908261148057604051632bfa23e760e11b81526001600160a01b0383166004820152602490fd5b9050602001fd5b6001600160e01b031916036114a157503880808080611296565b604051632bfa23e760e11b81526001600160a01b03919091166004820152602490fd5b6114e691925060203d81116114ed575b6114de8183610656565b810190611351565b9038611448565b503d6114d4565b939290949194853b611509575b505050505050565b61152c602093604051958694859463f23a6e6160e01b998a875260048701611397565b038160006001600160a01b0388165af16000918161156e575b5061155357826114566113ca565b6001600160e01b031916036114a15750388080808080611501565b61158791925060203d81116114ed576114de8183610656565b9038611545565b926115bd6102ce95936115cb9360018060a01b031686526000602087015260a0604087015260a0860190610890565b908482036060860152610890565b91608081840391015261027d565b93906102ce95936115bd916115cb9460018060a01b03809216885216602087015260a0604087015260a0860190610890565b9293919093843b61161d575050505050565b60209161142f604051948593849363bc197c8160e01b988986526004860161158e565b939290949194853b61165457505050505050565b61152c602093604051958694859463bc197c8160e01b998a8752600487016115d9565b6005546001600160a01b0392908316818416811490816116d0575b506116c85760ff926116c39216600052600160205260406000209060018060a01b0316600052602052604060002090565b541690565b505050600190565b905015153861169256fea264697066735822122014732825dd66faea43ce99377611a2908e896f8a77f061a45ffd78e0003a271364736f6c63430008140033",
  "devdoc": {
    "errors": {
      "ERC1155InsufficientBalance(address,uint256,uint256,uint256)": [
        {
          "details": "Indicates an error related to the current `balance` of a `sender`. Used in transfers.",
          "params": {
            "balance": "Current balance for the interacting account.",
            "needed": "Minimum amount required to perform a transfer.",
            "sender": "Address whose tokens are being transferred.",
            "tokenId": "Identifier number of a token."
          }
        }
      ],
      "ERC1155InvalidApprover(address)": [
        {
          "details": "Indicates a failure with the `approver` of a token to be approved. Used in approvals.",
          "params": {
            "approver": "Address initiating an approval operation."
          }
        }
      ],
      "ERC1155InvalidArrayLength(uint256,uint256)": [
        {
          "details": "Indicates an array length mismatch between ids and values in a safeBatchTransferFrom operation. Used in batch transfers.",
          "params": {
            "idsLength": "Length of the array of token identifiers",
            "valuesLength": "Length of the array of token amounts"
          }
        }
      ],
      "ERC1155InvalidOperator(address)": [
        {
          "details": "Indicates a failure with the `operator` to be approved. Used in approvals.",
          "params": {
            "operator": "Address that may be allowed to operate on tokens without being their owner."
          }
        }
      ],
      "ERC1155InvalidReceiver(address)": [
        {
          "details": "Indicates a failure with the token `receiver`. Used in transfers.",
          "params": {
            "receiver": "Address to which tokens are being transferred."
          }
        }
      ],
      "ERC1155InvalidSender(address)": [
        {
          "details": "Indicates a failure with the token `sender`. Used in transfers.",
          "params": {
            "sender": "Address whose tokens are being transferred."
          }
        }
      ],
      "ERC1155MissingApprovalForAll(address,address)": [
        {
          "details": "Indicates a failure with the `operator`’s approval. Used in transfers.",
          "params": {
            "operator": "Address that may be allowed to operate on tokens without being their owner.",
            "owner": "Address of the current owner of a token."
          }
        }
      ],
      "OwnableInvalidOwner(address)": [
        {
          "details": "The owner is not a valid owner account. (eg. `address(0)`)"
        }
      ],
      "OwnableUnauthorizedAccount(address)": [
        {
          "details": "The caller account is not authorized to perform an operation."
        }
      ]
    },
    "events": {
      "ApprovalForAll(address,address,bool)": {
        "details": "Emitted when `account` grants or revokes permission to `operator` to transfer their tokens, according to `approved`."
      },
      "TransferBatch(address,address,address,uint256[],uint256[])": {
        "details": "Equivalent to multiple {TransferSingle} events, where `operator`, `from` and `to` are the same for all transfers."
      },
      "TransferSingle(address,address,address,uint256,uint256)": {
        "details": "Emitted when `value` amount of tokens of type `id` are transferred from `from` to `to` by `operator`."
      },
      "URI(string,uint256)": {
        "details": "Emitted when the URI for token type `id` changes to `value`, if it is a non-programmatic URI. If an {URI} event was emitted for `id`, the standard https://eips.ethereum.org/EIPS/eip-1155#metadata-extensions[guarantees] that `value` will equal the value returned by {IERC1155MetadataURI-uri}."
      }
    },
    "kind": "dev",
    "methods": {
      "balanceOf(address,uint256)": {
        "details": "See {IERC1155-balanceOf}."
      },
      "balanceOfBatch(address[],uint256[])": {
        "details": "See {IERC1155-balanceOfBatch}. Requirements: - `accounts` and `ids` must have the same length."
      },
      "isApprovedForAll(address,address)": {
        "details": "See {IERC1155-isApprovedForAll}."
      },
      "owner()": {
        "details": "Returns the address of the current owner."
      },
      "renounceOwnership()": {
        "details": "Leaves the contract without owner. It will not be possible to call `onlyOwner` functions. Can only be called by the current owner. NOTE: Renouncing ownership will leave the contract without an owner, thereby disabling any functionality that is only available to the owner."
      },
      "safeBatchTransferFrom(address,address,uint256[],uint256[],bytes)": {
        "details": "See {IERC1155-safeBatchTransferFrom}."
      },
      "safeTransferFrom(address,address,uint256,uint256,bytes)": {
        "details": "See {IERC1155-safeTransferFrom}."
      },
      "setApprovalForAll(address,bool)": {
        "details": "See {IERC1155-setApprovalForAll}."
      },
      "supportsInterface(bytes4)": {
        "details": "See {IERC165-supportsInterface}."
      },
      "transferOwnership(address)": {
        "details": "Transfers ownership of the contract to a new account (`newOwner`). Can only be called by the current owner."
      },
      "uri(uint256)": {
        "details": "See {IERC1155MetadataURI-uri}. This implementation returns the same URI for *all* token types. It relies on the token type ID substitution mechanism https://eips.ethereum.org/EIPS/eip-1155#metadata[defined in the EIP]. Clients calling this function must replace the `\\{id\\}` substring with the actual token type ID."
      }
    },
    "version": 1
  },
  "userdoc": {
    "kind": "user",
    "methods": {},
    "version": 1
  },
  "storageLayout": {
    "storage": [
      {
        "astId": 1001,
        "contract": "contracts/OutcomeToken1155.sol:OutcomeToken1155",
        "label": "_balances",
        "offset": 0,
        "slot": "0",
        "type": "t_mapping(t_uint256,t_mapping(t_address,t_uint256))"
      },
      {
        "astId": 1007,
        "contract": "contracts/OutcomeToken1155.sol:OutcomeToken1155",
        "label": "_operatorApprovals",
        "offset": 0,
        "slot": "1",
        "type": "t_mapping(t_address,t_mapping(t_address,t_bool))"
      },
      {
        "astId": 1009,
        "contract": "contracts/OutcomeToken1155.sol:OutcomeToken1155",
        "label": "_uri",
        "offset": 0,
        "slot": "2",
        "type": "t_string_storage"
      },
      {
        "astId": 8,
        "contract": "contracts/OutcomeToken1155.sol:OutcomeToken1155",
        "label": "_owner",
        "offset": 0,
        "slot": "3",
        "type": "t_address"
      },
      {
        "astId": 7205,
        "contract": "contracts/OutcomeToken1155.sol:OutcomeToken1155",
        "label": "manager",
        "offset": 0,
        "slot": "4",
        "type": "t_address"
      },
      {
        "astId": 7207,
        "contract": "contracts/OutcomeToken1155.sol:OutcomeToken1155",
        "label": "exchange",
        "offset": 0,
        "slot": "5",
        "type": "t_address"
      }
    ],
    "types": {
      "t_address": {
        "encoding": "inplace",
        "label": "address",
        "numberOfBytes": "20"
      },
      "t_bool": {
        "encoding": "inplace",
        "label": "bool",
        "numberOfBytes": "1"
      },
      "t_mapping(t_address,t_bool)": {
        "encoding": "mapping",
        "key": "t_address",
        "label": "mapping(address => bool)",
        "numberOfBytes": "32",
        "value": "t_bool"
      },
      "t_mapping(t_address,t_mapping(t_address,t_bool))": {
        "encoding": "mapping",
        "key": "t_address",
        "label": "mapping(address => mapping(address => bool))",
        "numberOfBytes": "32",
        "value": "t_mapping(t_address,t_bool)"
      },
      "t_mapping(t_address,t_uint256)": {
        "encoding": "mapping",
        "key": "t_address",
        "label": "mapping(address => uint256)",
        "numberOfBytes": "32",
        "value": "t_uint256"
      },
      "t_mapping(t_uint256,t_mapping(t_address,t_uint256))": {
        "encoding": "mapping",
        "key": "t_uint256",
        "label": "mapping(uint256 => mapping(address => uint256))",
        "numberOfBytes": "32",
        "value": "t_mapping(t_address,t_uint256)"
      },
      "t_string_storage": {
        "encoding": "bytes",
        "label": "string",
        "numberOfBytes": "32"
      },
      "t_uint256": {
        "encoding": "inplace",
        "label": "uint256",
        "numberOfBytes": "32"
      }
    }
  }
}