{
  "address": "0x1BCB360a5dD929d94a329fE03f8cd4F239A87d71",
  "abi": [
    {
      "inputs": [
        {
          "internalType": "address",
          "name": "initialOwner",
          "type": "address"
        },
        {
          "internalType": "address",
          "name": "trustedForwarder",
          "type": "address"
        },
        {
          "internalType": "address",
          "name": "collateral",
          "type": "address"
        },
        {
          "internalType": "address",
          "name": "factoryAddress",
          "type": "address"
        },
        {
          "internalType": "address",
          "name": "tokenAddress",
          "type": "address"
        },
        {
          "internalType": "address",
          "name": "initialResolver",
          "type": "address"
        }
      ],
      "stateMutability": "nonpayable",
      "type": "constructor"
    },
    {
      "inputs": [
        {
          "internalType": "address",
          "name": "owner",
          "type": "address"
        }
      ],
      "name": "OwnableInvalidOwner",
      "type": "error"
    },
    {
      "inputs": [
        {
          "internalType": "address",
          "name": "account",
          "type": "address"
        }
      ],
      "name": "OwnableUnauthorizedAccount",
      "type": "error"
    },
    {
      "inputs": [],
      "name": "PredictionMarketManager__InvalidMarket",
      "type": "error"
    },
    {
      "inputs": [],
      "name": "PredictionMarketManager__MarketClosed",
      "type": "error"
    },
    {
      "inputs": [],
      "name": "PredictionMarketManager__MarketNotResolved",
      "type": "error"
    },
    {
      "inputs": [],
      "name": "PredictionMarketManager__MarketResolved",
      "type": "error"
    },
    {
      "inputs": [],
      "name": "PredictionMarketManager__NoWinningTokens",
      "type": "error"
    },
    {
      "inputs": [],
      "name": "PredictionMarketManager__NotResolver",
      "type": "error"
    },
    {
      "inputs": [],
      "name": "PredictionMarketManager__TransferFailed",
      "type": "error"
    },
    {
      "inputs": [],
      "name": "PredictionMarketManager__ZeroAddress",
      "type": "error"
    },
    {
      "inputs": [],
      "name": "PredictionMarketManager__ZeroAmount",
      "type": "error"
    },
    {
      "inputs": [],
      "name": "ReentrancyGuardReentrantCall",
      "type": "error"
    },
    {
      "anonymous": false,
      "inputs": [
        {
          "indexed": true,
          "internalType": "uint256",
          "name": "marketId",
          "type": "uint256"
        },
        {
          "indexed": false,
          "internalType": "enum PredictionMarketManager.Outcome",
          "name": "outcome",
          "type": "uint8"
        },
        {
          "indexed": false,
          "internalType": "bytes32",
          "name": "evidenceHash",
          "type": "bytes32"
        },
        {
          "indexed": true,
          "internalType": "address",
          "name": "resolver",
          "type": "address"
        }
      ],
      "name": "MarketResolved",
      "type": "event"
    },
    {
      "anonymous": false,
      "inputs": [
        {
          "indexed": true,
          "internalType": "address",
          "name": "user",
          "type": "address"
        },
        {
          "indexed": true,
          "internalType": "uint256",
          "name": "marketId",
          "type": "uint256"
        },
        {
          "indexed": false,
          "internalType": "uint256",
          "name": "amount",
          "type": "uint256"
        }
      ],
      "name": "Merge",
      "type": "event"
    },
    {
      "anonymous": false,
      "inputs": [
        {
          "indexed": true,
          "internalType": "address",
          "name": "previousOwner",
          "type": "address"
        },
        {
          "indexed": true,
          "internalType": "address",
          "name": "newOwner",
          "type": "address"
        }
      ],
      "name": "OwnershipTransferred",
      "type": "event"
    },
    {
      "anonymous": false,
      "inputs": [
        {
          "indexed": true,
          "internalType": "address",
          "name": "user",
          "type": "address"
        },
        {
          "indexed": true,
          "internalType": "uint256",
          "name": "marketId",
          "type": "uint256"
        },
        {
          "indexed": false,
          "internalType": "uint256",
          "name": "amount",
          "type": "uint256"
        }
      ],
      "name": "Redeemed",
      "type": "event"
    },
    {
      "anonymous": false,
      "inputs": [
        {
          "indexed": true,
          "internalType": "address",
          "name": "oldResolver",
          "type": "address"
        },
        {
          "indexed": true,
          "internalType": "address",
          "name": "newResolver",
          "type": "address"
        }
      ],
      "name": "ResolverUpdated",
      "type": "event"
    },
    {
      "anonymous": false,
      "inputs": [
        {
          "indexed": true,
          "internalType": "address",
          "name": "user",
          "type": "address"
        },
        {
          "indexed": true,
          "internalType": "uint256",
          "name": "marketId",
          "type": "uint256"
        },
        {
          "indexed": false,
          "internalType": "uint256",
          "name": "amount",
          "type": "uint256"
        }
      ],
      "name": "Split",
      "type": "event"
    },
    {
      "inputs": [],
      "name": "COLLATERAL_SCALE",
      "outputs": [
        {
          "internalType": "uint256",
          "name": "",
          "type": "uint256"
        }
      ],
      "stateMutability": "view",
      "type": "function"
    },
    {
      "inputs": [],
      "name": "SHARE_SCALE",
      "outputs": [
        {
          "internalType": "uint256",
          "name": "",
          "type": "uint256"
        }
      ],
      "stateMutability": "view",
      "type": "function"
    },
    {
      "inputs": [],
      "name": "collateralToken",
      "outputs": [
        {
          "internalType": "contract IERC20",
          "name": "",
          "type": "address"
        }
      ],
      "stateMutability": "view",
      "type": "function"
    },
    {
      "inputs": [],
      "name": "factory",
      "outputs": [
        {
          "internalType": "contract MarketFactory",
          "name": "",
          "type": "address"
        }
      ],
      "stateMutability": "view",
      "type": "function"
    },
    {
      "inputs": [
        {
          "internalType": "uint256",
          "name": "marketId",
          "type": "uint256"
        }
      ],
      "name": "isMarketOpenForTrading",
      "outputs": [
        {
          "internalType": "bool",
          "name": "",
          "type": "bool"
        }
      ],
      "stateMutability": "view",
      "type": "function"
    },
    {
      "inputs": [
        {
          "internalType": "address",
          "name": "forwarder",
          "type": "address"
        }
      ],
      "name": "isTrustedForwarder",
      "outputs": [
        {
          "internalType": "bool",
          "name": "",
          "type": "bool"
        }
      ],
      "stateMutability": "view",
      "type": "function"
    },
    {
      "inputs": [
        {
          "internalType": "uint256",
          "name": "",
          "type": "uint256"
        }
      ],
      "name": "markets",
      "outputs": [
        {
          "internalType": "enum PredictionMarketManager.MarketStatus",
          "name": "status",
          "type": "uint8"
        },
        {
          "internalType": "enum PredictionMarketManager.Outcome",
          "name": "winningOutcome",
          "type": "uint8"
        },
        {
          "internalType": "uint256",
          "name": "totalShares",
          "type": "uint256"
        }
      ],
      "stateMutability": "view",
      "type": "function"
    },
    {
      "inputs": [
        {
          "internalType": "uint256",
          "name": "marketId",
          "type": "uint256"
        },
        {
          "internalType": "uint256",
          "name": "amount",
          "type": "uint256"
        }
      ],
      "name": "merge",
      "outputs": [],
      "stateMutability": "nonpayable",
      "type": "function"
    },
    {
      "inputs": [],
      "name": "outcomeToken",
      "outputs": [
        {
          "internalType": "contract OutcomeToken1155",
          "name": "",
          "type": "address"
        }
      ],
      "stateMutability": "view",
      "type": "function"
    },
    {
      "inputs": [],
      "name": "owner",
      "outputs": [
        {
          "internalType": "address",
          "name": "",
          "type": "address"
        }
      ],
      "stateMutability": "view",
      "type": "function"
    },
    {
      "inputs": [
        {
          "internalType": "uint256",
          "name": "marketId",
          "type": "uint256"
        }
      ],
      "name": "redeem",
      "outputs": [],
      "stateMutability": "nonpayable",
      "type": "function"
    },
    {
      "inputs": [],
      "name": "renounceOwnership",
      "outputs": [],
      "stateMutability": "nonpayable",
      "type": "function"
    },
    {
      "inputs": [
        {
          "internalType": "uint256",
          "name": "marketId",
          "type": "uint256"
        },
        {
          "internalType": "enum PredictionMarketManager.Outcome",
          "name": "outcome",
          "type": "uint8"
        },
        {
          "internalType": "bytes32",
          "name": "evidenceHash",
          "type": "bytes32"
        }
      ],
      "name": "resolve",
      "outputs": [],
      "stateMutability": "nonpayable",
      "type": "function"
    },
    {
      "inputs": [],
      "name": "resolver",
      "outputs": [
        {
          "internalType": "address",
          "name": "",
          "type": "address"
        }
      ],
      "stateMutability": "view",
      "type": "function"
    },
    {
      "inputs": [
        {
          "internalType": "address",
          "name": "newResolver",
          "type": "address"
        }
      ],
      "name": "setResolver",
      "outputs": [],
      "stateMutability": "nonpayable",
      "type": "function"
    },
    {
      "inputs": [
        {
          "internalType": "uint256",
          "name": "marketId",
          "type": "uint256"
        },
        {
          "internalType": "uint256",
          "name": "amount",
          "type": "uint256"
        }
      ],
      "name": "split",
      "outputs": [],
      "stateMutability": "nonpayable",
      "type": "function"
    },
    {
      "inputs": [
        {
          "internalType": "address",
          "name": "newOwner",
          "type": "address"
        }
      ],
      "name": "transferOwnership",
      "outputs": [],
      "stateMutability": "nonpayable",
      "type": "function"
    },
    {
      "inputs": [],
      "name": "trustedForwarder",
      "outputs": [
        {
          "internalType": "address",
          "name": "",
          "type": "address"
        }
      ],
      "stateMutability": "view",
      "type": "function"
    }
  ],
  "transactionHash": "0x3c162ab69d2622189c907ea02f9e570dab7739a38689f25db419e915cf1a46e1",
  "args": [
    "0x5a7F2Db2D8CD430373e5d4d2094eE7639fcDe953",
    "0x27d8A172703Ee0b0A014b4685358c76b2a0FfC02",
    "0x3600000000000000000000000000000000000000",
    "0x1D3F79da391AFDd165B8728Ec08d5b6536702d9a",
    "0xB55442867806804Dc2ffbcD4229C6c8536132611",
    "0x5a7F2Db2D8CD430373e5d4d2094eE7639fcDe953"
  ],
  "numDeployments": 1,
  "solcInputHash": "a6cf1c1cc50282e404ec8b0e9ece1d35",
  "bytecode": "0x610100346200021657601f620016d438819003918201601f191683019291906001600160401b038411838510176200021b578160c092849260409687528339810103126200021657620000528162000231565b90620000616020820162000231565b906200006f84820162000231565b906200007e6060820162000231565b936200009b60a0620000936080850162000231565b930162000231565b6001600160a01b03918216949093908515620001fe57826000549160018060a01b0319978089851617600055828b5194167f8be0079c531659141344cd1fd0a4f28419497f9722a3daafe3b4186f6b6457e0600080a360018055806080521615620001ef57508116948515620001de578116918215620001de578116928315620001de5716938415620001cd5760a05260c05260e05260025416176002555161148d90816200024782396080518181816109c401528181610a7f01526113eb015260a0518181816103720152818161072d015281816108bf0152610b9a015260c05181818161087b01528181610ea60152818161111f0152818161127b0152611341015260e05181818161023a015281816102a7015281816104d9015281816105dd015281816109580152610bd20152f35b85516309b1aa3b60e41b8152600490fd5b86516309b1aa3b60e41b8152600490fd5b6309b1aa3b60e41b8152600490fd5b8751631e4fbdf760e01b815260006004820152602490fd5b600080fd5b634e487b7160e01b600052604160045260246000fd5b51906001600160a01b0382168203620002165756fe608060408181526004908136101561001657600080fd5b600092833560e01c90816304f3bcec14610fab575080630d6ebe6114610e155780634b19becc14610b315780634e543b2614610aa8578063572b6c0514610a4d578063715018a6146109f35780637da0a877146109af5780638da5cb5b14610987578063a998d6d814610943578063aac34df514610559578063b1283e77146108ee578063b2016bd4146108aa578063c45a015514610866578063d1c2babb1461058a578063d4bf33d31461055e578063d4c3272b14610559578063db006a75146101845763f2fde38b146100ea57600080fd5b34610180576020366003190112610180576001600160a01b0382358181169391929084900361017c5761011b611024565b8315610166575050600054826bffffffffffffffffffffffff60a01b821617600055167f8be0079c531659141344cd1fd0a4f28419497f9722a3daafe3b4186f6b6457e0600080a380f35b51631e4fbdf760e01b8152908101849052602490fd5b8480fd5b8280fd5b508290346105555760209081600319360112610180578335916101a56110e5565b6101ae8361125e565b82845260038152818420600183516101c58161108f565b8160ff84548181166101d681611004565b845260081c1693858301946101ea81611004565b8552015485820152516101fc81611004565b61020581611004565b03610545575161021481611004565b61021d81611004565b6104c057815163138a645b60e31b815285810184905281816024817f00000000000000000000000000000000000000000000000000000000000000006001600160a01b03165afa9081156104b6578591610489575b50915b61027d6113e8565b8151627eeac760e11b81526001600160a01b03828116828a019081526020810187905291959093917f00000000000000000000000000000000000000000000000000000000000000008516908690889081906040010381845afa96871561047f57899761044b575b50861561043b57803b15610437578251637a94c56560e11b81526001600160a01b038516818c01908152602081019390935260408301889052918991839182908490829060600103925af180156104155790889161041f575b5050805163a9059cbb60e01b81526001600160a01b038316818a019081526020810187905285908290819060400103818b887f0000000000000000000000000000000000000000000000000000000000000000165af19081156104155788916103e8575b50156103d9575193845216917ff3a670cd3af7d64b488926880889d08a8585a138ff455227af6737339a1ec2629190a36001805580f35b516341152e0b60e01b81528790fd5b6104089150853d871161040e575b61040081836110ab565b8101906110cd565b896103a2565b503d6103f6565b82513d8a823e3d90fd5b61042890611065565b61043357868961033e565b8680fd5b8880fd5b8251630320b53160e11b81528a90fd5b9096508581813d8311610478575b61046381836110ab565b810103126104735751958a6102e5565b600080fd5b503d610459565b83513d8b823e3d90fd5b90508181813d83116104af575b6104a081836110ab565b81010312610473575186610272565b503d610496565b83513d87823e3d90fd5b815163a45569c560e01b815285810184905281816024817f00000000000000000000000000000000000000000000000000000000000000006001600160a01b03165afa9081156104b6578591610518575b5091610275565b90508181813d831161053e575b61052f81836110ab565b81010312610473575186610511565b503d610525565b8251633ed02c8f60e21b81528690fd5b5080fd5b610fe6565b508234610587576020366003190112610587575061057e60209235611108565b90519015158152f35b80fd5b508290346105555761059b36610fd0565b90916105a56110e5565b8115610858576105b4836112f8565b6105bc6113e8565b815163138a645b60e31b81528681018590526020926001600160a01b0392917f00000000000000000000000000000000000000000000000000000000000000008416908581602481855afa90811561047f57899161082b575b50813b15610437578251637a94c56560e11b8082526001600160a01b038616828d0190815260208101939093526040830189905292918a9082908190606001038183865af1801561080d57908a91610817575b5050825163a45569c560e01b81528a8101899052918683602481855afa92831561080d578a936107de575b50813b156107da5783519081526001600160a01b038516818c01908152602081019390935260408301889052918991839182908490829060600103925af18015610415579088916107c6575b50869052600384526001818820018054908682039182116107b15755805163a9059cbb60e01b81526001600160a01b038316818a019081526020810187905285908290819060400103818b887f0000000000000000000000000000000000000000000000000000000000000000165af1908115610415578891610794575b50156103d9575193845216917f8421b0f95c0765e1ffbc4d13f827d1bdbee29eca261a6b9c2fa762e07409a1489190a36001805580f35b6107ab9150853d871161040e5761040081836110ab565b8961075d565b60118a634e487b7160e01b6000525260246000fd5b6107cf90611065565b6104335786896106df565b8980fd5b9092508681813d8311610806575b6107f681836110ab565b810103126104735751918b610693565b503d6107ec565b84513d8c823e3d90fd5b61082090611065565b61043757888b610668565b90508581813d8311610851575b61084281836110ab565b8101031261047357518a610615565b503d610838565b51628b2c9360e21b81528490fd5b838234610555578160031936011261055557517f00000000000000000000000000000000000000000000000000000000000000006001600160a01b03168152602090f35b838234610555578160031936011261055557517f00000000000000000000000000000000000000000000000000000000000000006001600160a01b03168152602090f35b509034610180576020366003190112610180576060928291358152600360205220805491600160ff8085169460081c169201549181519361092e81611004565b845261093981611004565b6020840152820152f35b838234610555578160031936011261055557517f00000000000000000000000000000000000000000000000000000000000000006001600160a01b03168152602090f35b838234610555578160031936011261055557905490516001600160a01b039091168152602090f35b838234610555578160031936011261055557517f00000000000000000000000000000000000000000000000000000000000000006001600160a01b03168152602090f35b8334610587578060031936011261058757610a0c611024565b600080546001600160a01b0319811682556001600160a01b03167f8be0079c531659141344cd1fd0a4f28419497f9722a3daafe3b4186f6b6457e08280a380f35b509034610180576020366003190112610180576001600160a01b039190358281169190829003610aa4576020935051917f000000000000000000000000000000000000000000000000000000000000000016148152f35b8380fd5b5034610180576020366003190112610180576001600160a01b0382358181169391929084900361017c57610ada611024565b8315610b24575050600254826bffffffffffffffffffffffff60a01b821617600255167f84b83d2b66cac119ccaaca68b476b0dc5371d5f2fd27f697770a910175fd38b68380a380f35b516309b1aa3b60e41b8152fd5b5082903461055557610b4236610fd0565b9091610b4c6110e5565b811561085857610b5b836112f8565b610b636113e8565b918151916323b872dd60e01b835260018060a01b039384811694858986015230602486015283604486015260209485816064818c867f0000000000000000000000000000000000000000000000000000000000000000165af1908115610dde578991610df8575b5015610de8577f000000000000000000000000000000000000000000000000000000000000000016825163138a645b60e31b8152878a8201528581602481855afa908115610dde578991610db1575b50813b15610437578351630ab714fb60e11b8082526001600160a01b038516828d019081526020810193909352604083018790529392918a9082908190606001038183865af18015610d9457610d9e575b50835163a45569c560e01b81528a8101899052928684602481855afa938415610d94578a94610d65575b50813b156107da5784519081526001600160a01b03909216828b0190815260208101939093526040830185905290918891839182908490829060600103925af18015610d5b57908791610d43575b5085905260038352600181872001805490838201809211610d30577f5d95162205dc900555172b9649799b0334d5c456a8c9d875524229cd73416d4b95969798505551908152a36001805580f35b634e487b7160e01b885260118952602488fd5b610d4c90611065565b610d57578588610ce2565b8580fd5b82513d89823e3d90fd5b9093508681813d8311610d8d575b610d7d81836110ab565b810103126104735751928b610c94565b503d610d73565b85513d8c823e3d90fd5b610daa90999199611065565b978a610c6a565b90508581813d8311610dd7575b610dc881836110ab565b8101031261043757518a610c19565b503d610dbe565b84513d8b823e3d90fd5b82516341152e0b60e01b81528990fd5b610e0f9150863d881161040e5761040081836110ab565b8a610bca565b50829034610555576060366003190112610555578235602435916002831015610aa457610e406110e5565b610e486113e8565b6002546001600160a01b03949190851690851603610f9b57610e698361125e565b82855260209360038552828620805497600160ff8a16610e8881611004565b14610f8d578451632305f86b60e11b815281810187905287816024817f000000000000000000000000000000000000000000000000000000000000000088165afa908115610f83578991610f56575b504210610f48575060017f3ae108efa6beff9457522cf7510eec4b904c6c6bd734ec6c6ac445a29bd4e28b95969798610f0f85611004565b61ffff1916600885901b61ff001617179055610f296113e8565b1694825191610f3781611004565b825260443590820152a36001805580f35b845163b27f151f60e01b8152fd5b90508781813d8311610f7c575b610f6d81836110ab565b8101031261043757518a610ed7565b503d610f63565b86513d8b823e3d90fd5b845163090c62a360e41b8152fd5b8151633a9644fb60e21b81528690fd5b8490346105555781600319360112610555576002546001600160a01b03168152602090f35b6040906003190112610473576004359060243590565b34610473576000366003190112610473576020604051620f42408152f35b6002111561100e57565b634e487b7160e01b600052602160045260246000fd5b6000546001600160a01b039081168161103b6113e8565b16036110445750565b60249061104f6113e8565b60405163118cdaa760e01b815291166004820152fd5b67ffffffffffffffff811161107957604052565b634e487b7160e01b600052604160045260246000fd5b6060810190811067ffffffffffffffff82111761107957604052565b90601f8019910116810190811067ffffffffffffffff82111761107957604052565b90816020910312610473575180151581036104735790565b6002600154146110f6576002600155565b604051633ee5aeb560e01b8152600490fd5b60408051633b1a699560e21b8152600481018390527f00000000000000000000000000000000000000000000000000000000000000006001600160a01b0316926020918281602481885afa90811561125357600091611236575b501561122d578060005260038252600183600020818551916111838361108f565b60ff815481811661119381611004565b855260081c166111a281611004565b86840152015485820152516111b681611004565b6111bf81611004565b1461122d5781906024845180968193632305f86b60e11b835260048301525afa91821561122357506000916111f7575b509050421090565b82813d831161121c575b61120b81836110ab565b8101031261058757505180386111ef565b503d611201565b513d6000823e3d90fd5b50505050600090565b61124d9150833d851161040e5761040081836110ab565b38611162565b84513d6000823e3d90fd5b604051633b1a699560e21b815260048101919091526020816024817f00000000000000000000000000000000000000000000000000000000000000006001600160a01b03165afa9081156112ec576000916112ce575b50156112bc57565b60405163b620abc960e01b8152600490fd5b6112e6915060203d811161040e5761040081836110ab565b386112b4565b6040513d6000823e3d90fd5b6113018161125e565b6000908082526003602052600160ff60408420541661131f81611004565b146113d657604051632305f86b60e11b815260048101919091526020816024817f00000000000000000000000000000000000000000000000000000000000000006001600160a01b03165afa9182156113ca578092611396575b505042101561138457565b60405163b27f151f60e01b8152600490fd5b9091506020823d82116113c2575b816113b1602093836110ab565b810103126105875750513880611379565b3d91506113a4565b604051903d90823e3d90fd5b60405163090c62a360e41b8152600490fd5b337f00000000000000000000000000000000000000000000000000000000000000006001600160a01b0316148061144c575b15611448576013193601368111611432573560601c90565b634e487b7160e01b600052601160045260246000fd5b3390565b50601436101561141a56fea2646970667358221220f4aff2d4938cd9ebc481fd513b10cc1b438f10c71d84874b0410a0aec93f6c8664736f6c63430008140033",
  "devdoc": {
    "errors": {
      "OwnableInvalidOwner(address)": [
        {
          "details": "The owner is not a valid owner account. (eg. `address(0)`)"
        }
      ],
      "OwnableUnauthorizedAccount(address)": [
        {
          "details": "The caller account is not authorized to perform an operation."
        }
      ],
      "ReentrancyGuardReentrantCall()": [
        {
          "details": "Unauthorized reentrant call."
        }
      ]
    },
    "kind": "dev",
    "methods": {
      "isTrustedForwarder(address)": {
        "details": "Indicates whether any particular address is the trusted forwarder."
      },
      "owner()": {
        "details": "Returns the address of the current owner."
      },
      "renounceOwnership()": {
        "details": "Leaves the contract without owner. It will not be possible to call `onlyOwner` functions. Can only be called by the current owner. NOTE: Renouncing ownership will leave the contract without an owner, thereby disabling any functionality that is only available to the owner."
      },
      "transferOwnership(address)": {
        "details": "Transfers ownership of the contract to a new account (`newOwner`). Can only be called by the current owner."
      },
      "trustedForwarder()": {
        "details": "Returns the address of the trusted forwarder."
      }
    },
    "version": 1
  },
  "userdoc": {
    "kind": "user",
    "methods": {},
    "version": 1
  },
  "storageLayout": {
    "storage": [
      {
        "astId": 8,
        "contract": "contracts/PredictionMarketManager.sol:PredictionMarketManager",
        "label": "_owner",
        "offset": 0,
        "slot": "0",
        "type": "t_address"
      },
      {
        "astId": 2042,
        "contract": "contracts/PredictionMarketManager.sol:PredictionMarketManager",
        "label": "_status",
        "offset": 0,
        "slot": "1",
        "type": "t_uint256"
      },
      {
        "astId": 4818,
        "contract": "contracts/PredictionMarketManager.sol:PredictionMarketManager",
        "label": "resolver",
        "offset": 0,
        "slot": "2",
        "type": "t_address"
      },
      {
        "astId": 4823,
        "contract": "contracts/PredictionMarketManager.sol:PredictionMarketManager",
        "label": "markets",
        "offset": 0,
        "slot": "3",
        "type": "t_mapping(t_uint256,t_struct(MarketState)4801_storage)"
      }
    ],
    "types": {
      "t_address": {
        "encoding": "inplace",
        "label": "address",
        "numberOfBytes": "20"
      },
      "t_enum(MarketStatus)4792": {
        "encoding": "inplace",
        "label": "enum PredictionMarketManager.MarketStatus",
        "numberOfBytes": "1"
      },
      "t_enum(Outcome)4789": {
        "encoding": "inplace",
        "label": "enum PredictionMarketManager.Outcome",
        "numberOfBytes": "1"
      },
      "t_mapping(t_uint256,t_struct(MarketState)4801_storage)": {
        "encoding": "mapping",
        "key": "t_uint256",
        "label": "mapping(uint256 => struct PredictionMarketManager.MarketState)",
        "numberOfBytes": "32",
        "value": "t_struct(MarketState)4801_storage"
      },
      "t_struct(MarketState)4801_storage": {
        "encoding": "inplace",
        "label": "struct PredictionMarketManager.MarketState",
        "members": [
          {
            "astId": 4795,
            "contract": "contracts/PredictionMarketManager.sol:PredictionMarketManager",
            "label": "status",
            "offset": 0,
            "slot": "0",
            "type": "t_enum(MarketStatus)4792"
          },
          {
            "astId": 4798,
            "contract": "contracts/PredictionMarketManager.sol:PredictionMarketManager",
            "label": "winningOutcome",
            "offset": 1,
            "slot": "0",
            "type": "t_enum(Outcome)4789"
          },
          {
            "astId": 4800,
            "contract": "contracts/PredictionMarketManager.sol:PredictionMarketManager",
            "label": "totalShares",
            "offset": 0,
            "slot": "1",
            "type": "t_uint256"
          }
        ],
        "numberOfBytes": "64"
      },
      "t_uint256": {
        "encoding": "inplace",
        "label": "uint256",
        "numberOfBytes": "32"
      }
    }
  }
}